:101123004B657920507265737365643A2025630AB1
:0111330000BB
:0E1134000C223132333435363738392A302325
:10110200E4FDFCC3ED9FEC9E5016E4FBFA000BBB22
:1011120000010AEB64784A70F40DBD00010C80E313
:0111220022AA
:06116300E4F5B3F5B4222F
:0611690053A0FEC2A0220B
:03116F00D2A022E9
:03117200C2A022F6
:100E5500E4FDED2404FFF87401088002C333D8FCD7
:100E6500F4F590E4FC7E007401A804088005C33302
:100E7500CE33CED8F9FFAB90EF5B70237E007401C3
:100E8500A804088005C333CE33CED8F9FFAB90EF65
:100E95005B60E9EC75F003A424222DF8E6FF220C33
:090EA500BC04C20DBD03AB7F00CB
:010EAE002221
:1010B100121163121169120E558F08E50860F712BB
:1010C100116F7BFF7A11792385080C1208627F6406
:0A10D1007E0012110212117280DC81
:1010780053B1BF53B2BF53B17F53B27F759850433A
:101088008920438780438E1053C4DFAB07AA06A983
:1010980005A8047F407E427D0F7C00120B98EF0468
:0910A800F404F58DD28ED29922D8
:100D88008F318E308D2F8C2E53B1BF53B2BF53B1DC
:100D98007F53B27F75985043878053C4F843C4206B
:100DA800AB31AA30A92FA82E7F407E427D0F7C0050
:100DB800120B98C374FF9FFF74FF9EFEE49DFDE431
:100DC8009CFC7808120C3B8FC6AB31AA30A92FA81F
:100DD8002E7F407E427D0F7C00120B98C374FF9FCC
:090DE800FF8FC543C408D2992213
:071143003098FDAF99C2983E
:01114A002282
:08114B00C2998F993099FD2231
:100DF1008F358E348D338C3253B1FB53B2FB53B3E9
:100E0100BF53B4BF75F85075C40853C4DFAB35AADE
:100E110034A933A8327F407E427D0F7C00120B98AB
:100E2100C374FF9FFF74FF9EFEE49DFDE49CFC786C
:100E310008120C3B8FC6AB35AA34A933A8327F40C8
:100E41007E427D0F7C00120B98C374FF9FFF8FC5FC
:040E510043C408226C
:0711530030F8FDAF9AC2F86D
:01115A002272
:08115B00C2F98F9A30F9FD2260
:100F97008F398E388D378C36538EF7438901D28C33
:100FA700E4FFFEFDFCAB39AA38A937A836C3120CFB
:100FB7002A6025758A7E758CFF308DFDC28DE539D7
:100FC70024FFF539E53834FFF538E53734FFF537D1
:0B0FD700E53634FFF53680C8C28C22DE
:100FE2008F3D8E3C8D3B8C3A538EF7438901D28CD8
:100FF200E4FFFEFDFCAB3DAA3CA93BA83AC3120CA0
:101002002A6025758ACA758CFA308DFDC28DE53D40
:1010120024FFF53DE53C34FFF53CE53B34FFF53B71
:0B102200E53A34FFF53A80C8C28C228A
:10102D008F418E408D3F8C3E538EEF438910D28E73
:10103D00E4FFFEFDFCAB41AA40A93FA83EC3120C44
:10104D002A6025758BEA758DCB308FFDC28FE541FA
:10105D0024FFF541E54034FFF540E53F34FFF53F12
:0B106D00E53E34FFF53E80C8C28E2235
:100EAF008F458E448D438C4253C9BF53C9DF43C90D
:100EBF0010D2CAE4FFFEFDFCAB45AA44A943A842E9
:100ECF00C3120C2A602575CC3075CDF830CFFDC21A
:100EDF00CFE54524FFF545E54434FFF544E54334BC
:0E0EEF00FFF543E54234FFF54280C8C2CA2237
:100EFD008F498E488D478C4675C40743C408E4FF5F
:100F0D00FEFDFCAB49AA48A947A846C3120C2A60AE
:100F1D002875C52C75C6CFE5C430E4FB53C4EFE589
:100F2D004924FFF549E54834FFF548E54734FFF519
:0D0F3D0047E54634FFF54680C553C4F72252
:100F4A008F4D8E4C8D4B8C4A75C40743C408E4FF01
:100F5A00FEFDFCAB4DAA4CA94BA84AC3120C2A6051
:100F6A002875C5D875C6FFE5C430E4FB53C4EFE560
:100F7A004D24FFF54DE54C34FFF54CE54B34FFF5B8
:0D0F8A004BE54A34FFF54A80C553C4F722F9
:03000000020CDC13
:100CDC0075C7AA75C75575FD5A75C7AA75C75575D9
:100CEC00FDA5787FE4F6D8FD9000007FFF7E03E43D
:0C0CFC00F0A3DFFCDEFA75814D020D4311
:100D08000210B1E493A3F8E493A34003F68001F240
:100D180008DFF48029E493A3F85407240CC8C333EC
:100D2800C4540F4420C8834004F456800146F6DFBB
:100D3800E4800B0102040810204080901134E47E06
:100D4800019360BCA3FF543F30E509541FFEE493B0
:100D5800A360010ECF54C025E060A840B8E493A377
:100D6800FAE493A3F8E493A3C8C582C8CAC583CAA2
:100D7800F0A3C8C582C8CAC583CADFE9DEE780BE5A
:0111420000AC
:100B5C0075F008758200EF2FFFEE33FECD33CDCC50
:100B6C0033CCC58233C5829BED9AEC99E5829840D3
:100B7C000CF582EE9BFEED9AFDEC99FC0FD5F0D6B0
:100B8C00E4CEFBE4CDFAE4CCF9A88222B800C1B9DA
:100B9C000059BA002DEC8BF084CFCECDFCE5F0CB18
:100BAC00F97818EF2FFFEE33FEED33FDEC33FCEB51
:100BBC0033FB10D703994004EB99FB0FD8E5E4F90C
:100BCC00FA227818EF2FFFEE33FEED33FDEC33FCF9
:100BDC00C933C910D7059BE99A4007EC9BFCE99AED
:100BEC00F90FD8E0E4C9FAE4CCFB2275F010EF2F32
:100BFC00FFEE33FEED33FDCC33CCC833C810D70732
:100C0C009BEC9AE899400AED9BFDEC9AFCE899F86C
:0E0C1C000FD5F0DAE4CDFBE4CCFAE4C8F922FF
:100C2A00EB9FF5F0EA9E42F0E99D42F0E89C45F020
:010C3A002297
:100C3B00E8600FECC313FCED13FDEE13FEEF13FF97
:030C4B00D8F122BB
:10080000E518240CF8E60518227809300702780C60
:10081000E475F001120CA6020C4E2000EB7F2ED2E4
:10082000008018EF540F2490D43440D4FF30040BD0
:10083000EF24BFB41A0050032461FFE519600215CC
:1008400019051CE51C7002051B30070D7809E475BD
:10085000F001120CA6EF020C940210DB7403D20715
:100860008003E4C207F5188B098A0A890BE4F5199D
:10087000F51BF51CE51960077F2012083B80F57514
:100880001AFFC201C200C202C203C205C206C208E8
:10089000120809FF700D3007057F0012084CAF1CCD
:1008A000AE1B22B4255FC2D5C204120809FF24D0B2
:1008B000B40A00501A75F00A781930D50508B6FF49
:1008C0000106C6A426F620D5047002D20380D924DE
:1008D000CFB41A00EF5004C2E5D204020A4CD20190
:1008E00080C6D20080C0D20280BCD2D580BAD205E8
:1008F00080B47F2012083B2002077401B519004024
:10090000F1120800FF12083B020874D208D20680D8
:1009100095120800FB120800FA120800F94A4B7001
:1009200006791D7A0B7BFF20022EE519602A7E00D6
:100930008E82758300120C6760060EEE651A70F0E9
:10094000C2D5EBC0E0EAC0E0E9C0E0EE120A93D005
:10095000E0F9D0E0FAD0E0FB120C4EFF60AAEBC049
:10096000E0EAC0E0E9C0E012083BD0E02401F9D0A1
:10097000E03400FAD0E0FBE51A0460DCD51AD98037
:10098000877BFF7A0A798FD202809C791080027966
:1009900008C206C2088008D2D5790A8004790AC242
:1009A000D5E51A047002F51AE4FAFDFEFF120800FC
:1009B000FC7B08200113120800FD7B1030000A1296
:1009C0000800FE120800FF7B20EC3382D592D55040
:1009D00013C3E43000069FFFE49EFEE42001039D64
:1009E000FDE49CFCE4CBF8C201EC700CCFCECDCC86
:1009F000E824F8F870F38017C3EF33FFEE33FEED11
:100A000033FDEC33FCEB33FB994002FB0FD8E9EBF1
:100A1000300105F8D0E0C448B201C0E00AEC4D4E08
:100A20004F78207B0070C2EAB51A0040BCC0E012CB
:100A30000A95D0F0D0E0200104C4C0E0C4B201C0E7
:100A4000F0120824D0F0D5F0EB020874120CB609AD
:100A50001153098B5808E24C08DE42098F4F099761
:0F0A60004409974908F743099D550981460981C3
:100A6F00450981470B3D5008E62D08EA2E090D2B4D
:100A7F0008EE23090B200B262A08A64800000905BB
:100A8F003F3F3F00790AA2D5200314300509B91062
:100A9F00020404B9080104A2D52006025001042063
:100AAF0002689202B519005034C0E07F203003195C
:100ABF007F30A20272067205500F120AECC202C2F8
:100ACF0006C205C2087F30800F300503E9C0E0126F
:100ADF00083B300503D0E0F9D0E0B519CC3005174D
:100AEF007F30B9100C12083B7F583004077F788095
:100AFF0003B9080312083B3002057F2D02083B7F24
:100B0F00202008F87F2B2006F322920280CF286E38
:100B1F00756C6C2900D2011208003001F8C20178FF
:100B2F001930D50108F60208A62D5043495812086E
:100B3F00002403B405004001E4900B389312082CF5
:0D0B4F00743A12082CD20375190402098BA8
:100C4E00BB010689828A83E0225002E722BBFE02A4
:090C5E00E32289828A83E49322D7
:100C6700BB010CE58229F582E5833AF583E0225042
:100C770006E92582F8E622BBFE06E92582F8E2228C
:0D0C8700E58229F582E5833AF583E49322A6
:100C9400BB010689828A83F0225002F722BBFE013F
:020CA400F32239
:100CA600FAE6FB0808E6F925F0F618E6CA3AF6224F
:100CB600D083D082F8E4937012740193700DA3A3CD
:100CC60093F8740193F5828883E4737402936860E1
:060CD600EFA3A3A380DFE1
:1010DB00EFB40A07740D1210E6740A309811A89930
:1010EB00B8130CC2983098FDA899C298B811F63075
:0710FB0099FDC299F599224D
:00000001FF
